{
  "_format": "hh-sol-artifact-1",
  "contractName": "YourContract",
  "sourceName": "contracts/YourContract.sol",
  "abi": [
    {
      "inputs": [
        {
          "internalType": "address",
          "name": "_recipient",
          "type": "address"
        },
        {
          "internalType": "string",
          "name": "_linkToRepo",
          "type": "string"
        },
        {
          "internalType": "uint256",
          "name": "_cap",
          "type": "uint256"
        }
      ],
      "stateMutability": "nonpayable",
      "type": "constructor"
    },
    {
      "anonymous": false,
      "inputs": [
        {
          "indexed": true,
          "internalType": "address",
          "name": "owner",
          "type": "address"
        },
        {
          "indexed": true,
          "internalType": "address",
          "name": "spender",
          "type": "address"
        },
        {
          "indexed": false,
          "internalType": "uint256",
          "name": "value",
          "type": "uint256"
        }
      ],
      "name": "Approval",
      "type": "event"
    },
    {
      "anonymous": false,
      "inputs": [
        {
          "indexed": true,
          "internalType": "address",
          "name": "from",
          "type": "address"
        },
        {
          "indexed": true,
          "internalType": "address",
          "name": "to",
          "type": "address"
        },
        {
          "indexed": false,
          "internalType": "uint256",
          "name": "value",
          "type": "uint256"
        }
      ],
      "name": "Transfer",
      "type": "event"
    },
    {
      "inputs": [
        {
          "internalType": "address",
          "name": "owner",
          "type": "address"
        },
        {
          "internalType": "address",
          "name": "spender",
          "type": "address"
        }
      ],
      "name": "allowance",
      "outputs": [
        {
          "internalType": "uint256",
          "name": "",
          "type": "uint256"
        }
      ],
      "stateMutability": "view",
      "type": "function"
    },
    {
      "inputs": [
        {
          "internalType": "address",
          "name": "spender",
          "type": "address"
        },
        {
          "internalType": "uint256",
          "name": "amount",
          "type": "uint256"
        }
      ],
      "name": "approve",
      "outputs": [
        {
          "internalType": "bool",
          "name": "",
          "type": "bool"
        }
      ],
      "stateMutability": "nonpayable",
      "type": "function"
    },
    {
      "inputs": [
        {
          "internalType": "address",
          "name": "account",
          "type": "address"
        }
      ],
      "name": "balanceOf",
      "outputs": [
        {
          "internalType": "uint256",
          "name": "",
          "type": "uint256"
        }
      ],
      "stateMutability": "view",
      "type": "function"
    },
    {
      "inputs": [],
      "name": "cap",
      "outputs": [
        {
          "internalType": "uint256",
          "name": "",
          "type": "uint256"
        }
      ],
      "stateMutability": "view",
      "type": "function"
    },
    {
      "inputs": [],
      "name": "decimals",
      "outputs": [
        {
          "internalType": "uint8",
          "name": "",
          "type": "uint8"
        }
      ],
      "stateMutability": "view",
      "type": "function"
    },
    {
      "inputs": [
        {
          "internalType": "address",
          "name": "spender",
          "type": "address"
        },
        {
          "internalType": "uint256",
          "name": "subtractedValue",
          "type": "uint256"
        }
      ],
      "name": "decreaseAllowance",
      "outputs": [
        {
          "internalType": "bool",
          "name": "",
          "type": "bool"
        }
      ],
      "stateMutability": "nonpayable",
      "type": "function"
    },
    {
      "inputs": [
        {
          "internalType": "address",
          "name": "_address",
          "type": "address"
        }
      ],
      "name": "getBalance",
      "outputs": [
        {
          "internalType": "uint256",
          "name": "",
          "type": "uint256"
        }
      ],
      "stateMutability": "view",
      "type": "function"
    },
    {
      "inputs": [
        {
          "internalType": "address",
          "name": "spender",
          "type": "address"
        },
        {
          "internalType": "uint256",
          "name": "addedValue",
          "type": "uint256"
        }
      ],
      "name": "increaseAllowance",
      "outputs": [
        {
          "internalType": "bool",
          "name": "",
          "type": "bool"
        }
      ],
      "stateMutability": "nonpayable",
      "type": "function"
    },
    {
      "inputs": [],
      "name": "linkToRepo",
      "outputs": [
        {
          "internalType": "string",
          "name": "",
          "type": "string"
        }
      ],
      "stateMutability": "view",
      "type": "function"
    },
    {
      "inputs": [],
      "name": "name",
      "outputs": [
        {
          "internalType": "string",
          "name": "",
          "type": "string"
        }
      ],
      "stateMutability": "view",
      "type": "function"
    },
    {
      "inputs": [],
      "name": "owner",
      "outputs": [
        {
          "internalType": "address",
          "name": "",
          "type": "address"
        }
      ],
      "stateMutability": "view",
      "type": "function"
    },
    {
      "inputs": [],
      "name": "repoOwner",
      "outputs": [
        {
          "internalType": "address",
          "name": "",
          "type": "address"
        }
      ],
      "stateMutability": "view",
      "type": "function"
    },
    {
      "inputs": [
        {
          "internalType": "string",
          "name": "_username",
          "type": "string"
        }
      ],
      "name": "reserveContributorTokens",
      "outputs": [],
      "stateMutability": "nonpayable",
      "type": "function"
    },
    {
      "inputs": [
        {
          "internalType": "string",
          "name": "_username",
          "type": "string"
        },
        {
          "internalType": "address",
          "name": "_address",
          "type": "address"
        }
      ],
      "name": "sendContributorTokens",
      "outputs": [],
      "stateMutability": "nonpayable",
      "type": "function"
    },
    {
      "inputs": [],
      "name": "sponsorFundsRepo",
      "outputs": [],
      "stateMutability": "payable",
      "type": "function"
    },
    {
      "inputs": [],
      "name": "symbol",
      "outputs": [
        {
          "internalType": "string",
          "name": "",
          "type": "string"
        }
      ],
      "stateMutability": "view",
      "type": "function"
    },
    {
      "inputs": [],
      "name": "totalSupply",
      "outputs": [
        {
          "internalType": "uint256",
          "name": "",
          "type": "uint256"
        }
      ],
      "stateMutability": "view",
      "type": "function"
    },
    {
      "inputs": [
        {
          "internalType": "address",
          "name": "recipient",
          "type": "address"
        },
        {
          "internalType": "uint256",
          "name": "amount",
          "type": "uint256"
        }
      ],
      "name": "transfer",
      "outputs": [
        {
          "internalType": "bool",
          "name": "",
          "type": "bool"
        }
      ],
      "stateMutability": "nonpayable",
      "type": "function"
    },
    {
      "inputs": [
        {
          "internalType": "address",
          "name": "sender",
          "type": "address"
        },
        {
          "internalType": "address",
          "name": "recipient",
          "type": "address"
        },
        {
          "internalType": "uint256",
          "name": "amount",
          "type": "uint256"
        }
      ],
      "name": "transferFrom",
      "outputs": [
        {
          "internalType": "bool",
          "name": "",
          "type": "bool"
        }
      ],
      "stateMutability": "nonpayable",
      "type": "function"
    }
  ],
  "bytecode": "0x60806040523480156200001157600080fd5b50604051620015b4380380620015b4833981810160405260608110156200003757600080fd5b8151602083018051604051929492938301929190846401000000008211156200005f57600080fd5b9083019060208201858111156200007557600080fd5b82516401000000008111828201881017156200009057600080fd5b82525081516020918201929091019080838360005b83811015620000bf578181015183820152602001620000a5565b50505050905090810190601f168015620000ed5780820380516001836020036101000a031916815260200191505b5060408181526020928301518282018252600783526626bcaa37b5b2b760c91b848401908152825180840190935260038084526213565560ea1b9584019590955283519196508695509293919262000146929162000460565b5080516200015c90600490602084019062000460565b50506005805460ff191660121790555080620001bf576040805162461bcd60e51b815260206004820152601560248201527f45524332304361707065643a2063617020697320300000000000000000000000604482015290519081900360640190fd5b600655620001e08368056bc75e2d631000006001600160e01b036200021a16565b600880546001600160a01b0319166001600160a01b03851617905581516200021090600790602085019062000460565b5050505062000502565b6001600160a01b03821662000276576040805162461bcd60e51b815260206004820152601f60248201527f45524332303a206d696e7420746f20746865207a65726f206164647265737300604482015290519081900360640190fd5b6200028d600083836001600160e01b036200033216565b620002a981600254620003f160201b62000d7d1790919060201c565b6002556001600160a01b03821660009081526020818152604090912054620002dc91839062000d7d620003f1821b17901c565b6001600160a01b0383166000818152602081815260408083209490945583518581529351929391927fddf252ad1be2c89b69c2b068fc378daa952ba7f163c4a11628f55a4df523b3ef9281900390910190a35050565b6200034a838383620003ec60201b62000f661760201c565b6001600160a01b038316620003ec576200036c6001600160e01b036200045316565b6200039882620003846001600160e01b036200045a16565b620003f160201b62000d7d1790919060201c565b1115620003ec576040805162461bcd60e51b815260206004820152601960248201527f45524332304361707065643a2063617020657863656564656400000000000000604482015290519081900360640190fd5b505050565b6000828201838110156200044c576040805162461bcd60e51b815260206004820152601b60248201527f536166654d6174683a206164646974696f6e206f766572666c6f770000000000604482015290519081900360640190fd5b9392505050565b6006545b90565b60025490565b828054600181600116156101000203166002900490600052602060002090601f016020900481019282601f10620004a357805160ff1916838001178555620004d3565b82800160010185558215620004d3579182015b82811115620004d3578251825591602001919060010190620004b6565b50620004e1929150620004e5565b5090565b6200045791905b80821115620004e15760008155600101620004ec565b6110a280620005126000396000f3fe6080604052600436106101145760003560e01c806370a08231116100a0578063a9059cbb11610064578063a9059cbb14610457578063b092864d14610490578063ba638c90146104a5578063dd62ed3e14610563578063f8b2cb4f1461059e57610114565b806370a08231146102f25780638af9bff5146103255780638da5cb5b146103d857806395d89b4114610409578063a457c2d71461041e57610114565b806323b872dd116100e757806323b872dd1461022c578063313ce5671461026f578063355274ea1461029a57806339509351146102af578063437aea58146102e857610114565b806306fdde0314610119578063095ea7b3146101a357806318160ddd146101f057806318277c6914610217575b600080fd5b34801561012557600080fd5b5061012e6105d1565b6040805160208082528351818301528351919283929083019185019080838360005b83811015610168578181015183820152602001610150565b50505050905090810190601f1680156101955780820380516001836020036101000a031916815260200191505b509250505060405180910390f35b3480156101af57600080fd5b506101dc600480360360408110156101c657600080fd5b506001600160a01b038135169060200135610667565b604080519115158252519081900360200190f35b3480156101fc57600080fd5b50610205610684565b60408051918252519081900360200190f35b34801561022357600080fd5b5061012e61068a565b34801561023857600080fd5b506101dc6004803603606081101561024f57600080fd5b506001600160a01b03813581169160208101359091169060400135610718565b34801561027b57600080fd5b506102846107a5565b6040805160ff9092168252519081900360200190f35b3480156102a657600080fd5b506102056107ae565b3480156102bb57600080fd5b506101dc600480360360408110156102d257600080fd5b506001600160a01b0381351690602001356107b4565b6102f0610808565b005b3480156102fe57600080fd5b506102056004803603602081101561031557600080fd5b50356001600160a01b0316610842565b34801561033157600080fd5b506102f06004803603602081101561034857600080fd5b81019060208101813564010000000081111561036357600080fd5b82018360208201111561037557600080fd5b8035906020019184600183028401116401000000008311171561039757600080fd5b91908080601f01602080910402602001604051908101604052809392919081815260200183838082843760009201919091525092955061085d945050505050565b3480156103e457600080fd5b506103ed6108ca565b604080516001600160a01b039092168252519081900360200190f35b34801561041557600080fd5b5061012e6108d9565b34801561042a57600080fd5b506101dc6004803603604081101561044157600080fd5b506001600160a01b03813516906020013561093a565b34801561046357600080fd5b506101dc6004803603604081101561047a57600080fd5b506001600160a01b0381351690602001356109a8565b34801561049c57600080fd5b506103ed6109bc565b3480156104b157600080fd5b506102f0600480360360408110156104c857600080fd5b8101906020810181356401000000008111156104e357600080fd5b8201836020820111156104f557600080fd5b8035906020019184600183028401116401000000008311171561051757600080fd5b91908080601f016020809104026020016040519081016040528093929190818152602001838380828437600092019190915250929550505090356001600160a01b031691506109cb9050565b34801561056f57600080fd5b506102056004803603604081101561058657600080fd5b506001600160a01b0381358116916020013516610a53565b3480156105aa57600080fd5b50610205600480360360208110156105c157600080fd5b50356001600160a01b0316610a7e565b60038054604080516020601f600260001961010060018816150201909516949094049384018190048102820181019092528281526060939092909183018282801561065d5780601f106106325761010080835404028352916020019161065d565b820191906000526020600020905b81548152906001019060200180831161064057829003601f168201915b5050505050905090565b600061067b610674610a8f565b8484610a93565b50600192915050565b60025490565b6007805460408051602060026001851615610100026000190190941693909304601f810184900484028201840190925281815292918301828280156107105780601f106106e557610100808354040283529160200191610710565b820191906000526020600020905b8154815290600101906020018083116106f357829003601f168201915b505050505081565b6000610725848484610b7f565b61079b84610731610a8f565b61079685604051806060016040528060288152602001610fd7602891396001600160a01b038a1660009081526001602052604081209061076f610a8f565b6001600160a01b03168152602081019190915260400160002054919063ffffffff610ce616565b610a93565b5060019392505050565b60055460ff1690565b60065490565b600061067b6107c1610a8f565b8461079685600160006107d2610a8f565b6001600160a01b03908116825260208083019390935260409182016000908120918c16815292529020549063ffffffff610d7d16565b66038d7ea4c6800034101561081c57600080fd5b336000818152600a6020526040902034905561084090678ac7230489e80000610dde565b565b6001600160a01b031660009081526020819052604090205490565b6001600b826040518082805190602001908083835b602083106108915780518252601f199092019160209182019101610872565b51815160209384036101000a60001901801990921691161790529201948552506040519384900301909220805493909301909255505050565b6009546001600160a01b031681565b60048054604080516020601f600260001961010060018816150201909516949094049384018190048102820181019092528281526060939092909183018282801561065d5780601f106106325761010080835404028352916020019161065d565b600061067b610947610a8f565b84610796856040518060600160405280602581526020016110486025913960016000610971610a8f565b6001600160a01b03908116825260208083019390935260409182016000908120918d1681529252902054919063ffffffff610ce616565b600061067b6109b5610a8f565b8484610b7f565b6008546001600160a01b031681565b6000600b836040518082805190602001908083835b602083106109ff5780518252601f1990920191602091820191016109e0565b6001836020036101000a03801982511681845116808217855250505050505090500191505090815260200160405180910390205411610a3d57600080fd5b610a4f81670de0b6b3a7640000610dde565b5050565b6001600160a01b03918216600090815260016020908152604080832093909416825291909152205490565b6000610a8982610842565b92915050565b3390565b6001600160a01b038316610ad85760405162461bcd60e51b81526004018080602001828103825260248152602001806110246024913960400191505060405180910390fd5b6001600160a01b038216610b1d5760405162461bcd60e51b8152600401808060200182810382526022815260200180610f8f6022913960400191505060405180910390fd5b6001600160a01b03808416600081815260016020908152604080832094871680845294825291829020859055815185815291517f8c5be1e5ebec7d5bd14f71427d1e84f3dd0314c0f7b2291e5b200ac8c7c3b9259281900390910190a3505050565b6001600160a01b038316610bc45760405162461bcd60e51b8152600401808060200182810382526025815260200180610fff6025913960400191505060405180910390fd5b6001600160a01b038216610c095760405162461bcd60e51b8152600401808060200182810382526023815260200180610f6c6023913960400191505060405180910390fd5b610c14838383610eda565b610c5781604051806060016040528060268152602001610fb1602691396001600160a01b038616600090815260208190526040902054919063ffffffff610ce616565b6001600160a01b038085166000908152602081905260408082209390935590841681522054610c8c908263ffffffff610d7d16565b6001600160a01b038084166000818152602081815260409182902094909455805185815290519193928716927fddf252ad1be2c89b69c2b068fc378daa952ba7f163c4a11628f55a4df523b3ef92918290030190a3505050565b60008184841115610d755760405162461bcd60e51b81526004018080602001828103825283818151815260200191508051906020019080838360005b83811015610d3a578181015183820152602001610d22565b50505050905090810190601f168015610d675780820380516001836020036101000a031916815260200191505b509250505060405180910390fd5b505050900390565b600082820183811015610dd7576040805162461bcd60e51b815260206004820152601b60248201527f536166654d6174683a206164646974696f6e206f766572666c6f770000000000604482015290519081900360640190fd5b9392505050565b6001600160a01b038216610e39576040805162461bcd60e51b815260206004820152601f60248201527f45524332303a206d696e7420746f20746865207a65726f206164647265737300604482015290519081900360640190fd5b610e4560008383610eda565b600254610e58908263ffffffff610d7d16565b6002556001600160a01b038216600090815260208190526040902054610e84908263ffffffff610d7d16565b6001600160a01b0383166000818152602081815260408083209490945583518581529351929391927fddf252ad1be2c89b69c2b068fc378daa952ba7f163c4a11628f55a4df523b3ef9281900390910190a35050565b610ee5838383610f66565b6001600160a01b038316610f6657610efb6107ae565b610f1382610f07610684565b9063ffffffff610d7d16565b1115610f66576040805162461bcd60e51b815260206004820152601960248201527f45524332304361707065643a2063617020657863656564656400000000000000604482015290519081900360640190fd5b50505056fe45524332303a207472616e7366657220746f20746865207a65726f206164647265737345524332303a20617070726f766520746f20746865207a65726f206164647265737345524332303a207472616e7366657220616d6f756e7420657863656564732062616c616e636545524332303a207472616e7366657220616d6f756e74206578636565647320616c6c6f77616e636545524332303a207472616e736665722066726f6d20746865207a65726f206164647265737345524332303a20617070726f76652066726f6d20746865207a65726f206164647265737345524332303a2064656372656173656420616c6c6f77616e63652062656c6f77207a65726fa264697066735822122004bebddf4c8f35f18cdc10cc300cbd3266f84ad0cb7ae52897222f6dc4ff194164736f6c63430006000033",
  "linkReferences": {},
  "deployedLinkReferences": {}
}